:100000000C9472000C9486000C9486000C9486006C
:100010000C9486000C9486000C9486000C94860048
:100020000C9486000C9486000C9486000C94860038
:100030000C9486000C9486000C9486000C94860028
:100040000C9486000C9404030C9486000C94860097
:100050000C9486000C9486000C9486000C94860008
:100060000C9486000C9486000C9486000C948600F8
:100070000C9486000C948E020C9486000C948600DE
:100080000C9486000C9486000C9486000C948600D8
:100090000C9486000C9486000C9486000C948600C8
:1000A0000C9486000C9486000C9486000C948600B8
:1000B0000C9486000C9486000C9486000C948600A8
:1000C0000C9486000C9486000C9486000C94860098
:1000D0000C9486000C9486000C9486000C94860088
:1000E0000C94860011241FBECFEFD1E2DEBFCDBF3E
:1000F00000E00CBF22E0A0E0B2E001C01D92A435F8
:10010000B207E1F70E9482010C9490050C94000064
:10011000CF92DF92EF92FF920F931F93CF93DF93D3
:10012000CDB7DEB766970FB6F894DEBF0FBECDBF72
:100130009E878D874F87588B698B7A8B0B8B1C8B97
:100140002D8B3E8B8D859E85FC0184899589A689A2
:10015000B7892F85388949895A89BC01CD010E9408
:100160002305DC01CB0189839A83AB83BC838D8516
:100170009E85FC0184819581A681B7812F85388970
:1001800049895A89BC01CD010E94CC03DC01CB0115
:100190002D853E85F90184839583A683B7838D855C
:1001A0009E85FC0184819581A681B7812D853E8540
:1001B000F9012085318542855385BC01CD010E941E
:1001C0001E0518167CF48D859E85FC018085918521
:1001D000A285B3852D853E85F90184839583A68309
:1001E000B78322C08D859E85FC0184819581A6817F
:1001F000B7812D853E85F90124853585468557854E
:10020000BC01CD010E943804882374F48D859E853D
:10021000FC0184859585A685B7852D853E85F901E8
:1002200084839583A683B7838D859E85FC01808911
:100230009189A289B3892D853E85F9012481358173
:1002400046815781BC01CD010E942305DC01CB0111
:100250008D839E83AF83B8878D859E85FC01C08C7E
:10026000D18CE28CF38C8D859E85FC0180819181FF
:10027000A281B3819C01AD016B897C898D899E89A6
:100280000E94CB03DC01CB019C01AD01C701B6018B
:100290000E942305DC01CB0189879A87AB87BC8745
:1002A0002D853E858B899C89AD89BE89F901808326
:1002B0009183A283B3832D813E814F8158856981CB
:1002C0007A818B819C810E94CC03DC01CB01298542
:1002D0003A854B855C85BC01CD010E94CB03DC01D6
:1002E000CB01BC01CD0166960FB6F894DEBF0FBE00
:1002F000CDBFDF91CF911F910F91FF90EF90DF90D5
:10030000CF900895CF93DF93CDB7DEB70E948D01D4
:100310000E9434020E946002FFCFCF93DF93CDB7DB
:10032000DEB781E290E02FEFFC01208382E290E0D3
:100330002FEFFC01208380E090E0A8E4B2E48093FA
:10034000440290934502A0934602B093470280E096
:1003500090E0A0E2B1E48093500290935102A09308
:100360005202B093530280E090E0A0E2B1E48093A7
:10037000200290932102A0932202B093230280E0F6
:1003800090E0A0E2B1E48093100290931102A09358
:100390001202B093130280E090E0A0E2B1E48093F7
:1003A000140290931502A0931602B093170280E0F6
:1003B00090E0A0E2B1E48093180290931902A09318
:1003C0001A02B0931B0280E090E0A8ECB2E48093A4
:1003D000080290930902A0930A02B0930B021092B4
:1003E0000C0210920D0210920E0210920F0280E089
:1003F00090E0A0E2B1E48093340290933502A093A0
:100400003602B093370280E090E0A0E2B1E480933E
:10041000380290933902A0933A02B0933B0280E0F5
:1004200090E0A0E2B1E480933C0290933D02A0935F
:100430003E02B0933F0280E090E0A8ECB2E48093EB
:100440002C0290932D02A0932E02B0932F021092B3
:1004500030021092310210923202109233027894DC
:100460000000DF91CF910895CF93DF93CDB7DEB732
:1004700080E890E0FC01108281E890E02DE0FC0132
:10048000208382E890E0FC01108289E890E023E07C
:10049000FC01208388E890E020EDFC01208385E8C2
:1004A00090E0FC01108284E890E0FC0110828FE66D
:1004B00090E022E0FC0120830000DF91CF910895BD
:1004C000CF93DF93CDB7DEB78CE790E022E6FC0157
:1004D00020838AE790E02DEAFC0120838BE790E0FF
:1004E0002BE730E0F9012081207FFC0120838EE79B
:1004F00090E02CE0FC0120838DE790E02FEFFC01E1
:1005000020838AE790E02AE730E0F9012081206427
:10051000FC0120830000DF91CF9108951F920F927C
:1005200000905F000F92112400905B000F922F93B8
:100530003F934F935F936F937F938F939F93AF936B
:10054000BF93EF93FF93CF93DF931F921F92CDB78B
:10055000DEB78CE790E0FC018081898389E790E039
:10056000FC0180818A8389818F71898389818230AE
:10057000C9F48A81882F90E0A0E0B0E0BC01CD01F1
:100580000E946C04DC01CB01809320029093210235
:10059000A0932202B09323028CE790E023E6FC01B3
:1005A000208318C08A81882F90E0A0E0B0E0BC01D1
:1005B000CD010E946C04DC01CB018093500290932A
:1005C0005102A0935202B09353028CE790E022E6CE
:1005D000FC01208300000F900F90DF91CF91FF91DD
:1005E000EF91BF91AF919F918F917F916F915F91AB
:1005F0004F913F912F910F9000925B000F900092CE
:100600005F000F901F9018951F920F9200905F004F
:100610000F92112400905B000F920F931F932F9362
:100620003F934F935F936F937F938F939F93AF937A
:10063000BF93EF93FF93CF93DF93CDB7DEB7809156
:10064000200290912102A0912202B09123022091D8
:100650004402309145024091460250914702BC014C
:10066000CD010E94CB03DC01CB0180934802909323
:100670004902A0934A02B0934B022091500230915C
:100680005102409152025091530280914002909148
:100690004102A0914202B091430289019A01AC014A
:1006A000BD0180E092E00E948800DC01CB018093D4
:1006B0004C0290934D02A0934E02B0934F02809152
:1006C000500290915102A0915202B0915302209198
:1006D0001C0230911D0240911E0250911F02BC016C
:1006E000CD010E94CB03DC01CB01809340029093AB
:1006F0004102A0934202B093430220912002309124
:10070000210240912202509123028091480290914F
:100710004902A0914A02B0914B0289019A01AC01B1
:10072000BD0184E292E00E948800DC01CB0180934D
:100730001C0290931D02A0931E02B0931F0202E2BE
:1007400010E080914C0290914D02A0914E02B09128
:100750004F02BC01CD010E943D04DC01CB01F80138
:1007600080830000DF91CF91FF91EF91BF91AF9116
:100770009F918F917F916F915F914F913F912F91B9
:100780001F910F910F9000925B000F9000925F00FD
:100790000F901F9018955058BB27AA270E94E3037B
:1007A0000C94E4040E94D60438F00E94DD0420F08A
:1007B00039F49F3F19F426F40C94D3040EF4E09519
:1007C000E7FB0C94CD04E92F0E94F50458F3BA1707
:1007D000620773078407950720F079F4A6F50C9457
:1007E00017050EF4E0950B2EBA2FA02D0B01B901C1
:1007F00090010C01CA01A0011124FF27591B99F097
:10080000593F50F4503E68F11A16F040A22F232FA2
:10081000342F4427585FF3CF469537952795A795F2
:10082000F0405395C9F77EF41F16BA0B620B730B99
:10083000840BBAF09150A1F0FF0FBB1F661F771F0A
:10084000881FC2F70EC0BA0F621F731F841F48F4BF
:10085000879577956795B795F7959E3F08F0B0CF48
:100860009395880F08F09927EE0F9795879508952F
:100870000E94A90408F481E008950E94FD0488F014
:100880009F5798F0B92F9927B751B0F0E1F0660F54
:10089000771F881F991F1AF0BA95C9F714C0B13095
:1008A00091F00E941705B1E008950C941705672F89
:1008B000782F8827B85F39F0B93FCCF386957795C4
:1008C0006795B395D9F73EF49095809570956195AD
:1008D0007F4F8F4F9F4F0895E89409C097FB3EF4D8
:1008E00090958095709561957F4F8F4F9F4F99237D
:1008F000A9F0F92F96E9BB279395F69587957795FB
:100900006795B795F111F8CFFAF4BB0F11F460FFBA
:100910001BC06F5F7F4F8F4F9F4F16C0882311F012
:1009200096E911C0772321F09EE8872F762F05C026
:10093000662371F096E8862F70E060E02AF09A95C1
:10094000660F771F881FDAF7880F9695879597F9B6
:100950000895990F0008550FAA0BE0E8FEEF161650
:100960001706E807F907C0F012161306E407F507A3
:1009700098F0621B730B840B950B39F40A2661F017
:10098000232B242B252B21F408950A2609F4A140BA
:10099000A6958FEF811D811D089597F99F6780E8C7
:1009A00070E060E008959FEF80EC089500240A94C1
:1009B0001616170618060906089500240A9412163A
:1009C0001306140605060895092E0394000C11F46D
:1009D000882352F0BB0F40F4BF2B11F460FF04C01A
:1009E0006F5F7F4F8F4F9F4F089557FD9058440F73
:1009F000551F59F05F3F71F04795880F97FB991F7E
:100A000061F09F3F79F0879508951216130614063A
:100A1000551FF2CF4695F1DF08C0161617061806C7
:100A2000991FF1CF86957105610508940895E894A2
:100A3000BB2766277727CB0197F908950E94A90461
:100A400008F48FEF08950E9436050C94E4040E9488
:100A5000D60438F00E94DD0420F0952311F00C94A8
:100A6000CD040C94D30411240C9418050E94F504B1
:100A700070F3959FC1F3950F50E0551F629FF001F1
:100A8000729FBB27F00DB11D639FAA27F00DB11D0A
:100A9000AA1F649F6627B00DA11D661F829F222793
:100AA000B00DA11D621F739FB00DA11D621F839F1A
:100AB000A00D611D221F749F3327A00D611D231FF0
:100AC000849F600D211D822F762F6A2F11249F573E
:100AD00050409AF0F1F088234AF0EE0FFF1FBB1F41
:100AE000661F771F881F91505040A9F79E3F510500
:100AF00080F00C94CD040C9418055F3FE4F3983E0D
:100B0000D4F3869577956795B795F795E7959F5FA9
:100B1000C1F7FE2B880F911D9695879597F908953B
:040B2000F894FFCF77
:00000001FF
