:100000000C9472000C9493000C9493000C94930045
:100010000C9493000C9493000C9493000C94930014
:100020000C9493000C9440090C9493000C9493004E
:100030000C9493000C9493000C9493000C949300F4
:100040000C9493000C9453080C9493000C9493001C
:100050000C9493000C9493000C9493000C949300D4
:100060000C9493000C9493000C9493000C949300C4
:100070000C9493000C94DD070C9493000C94930063
:100080000C9493000C9493000C9493000C949300A4
:100090000C9493000C9493000C9493000C94930094
:1000A0000C9493000C9493000C9493000C94930084
:1000B0000C9493000C9493000C9493000C94930074
:1000C0000C9493000C9493000C9493000C94930064
:1000D0000C9493000C9493000C9493000C94930054
:1000E0000C94930011241FBECFEFD1E2DEBFCDBF31
:1000F00000E00CBF12E0A0E0B2E0EAE6F3E200E0CC
:100100000BBF02C007900D92A832B107D9F722E0C9
:10011000A8E2B2E001C01D92AA38B207E1F70E943E
:1001200015030C94B3110C940000CF93DF931F922E
:100130001F92CDB7DEB79A83898389819A81892BF3
:1001400011F400C006C089819A810197F1F79A8362
:10015000898300000F900F90DF91CF910895CF9386
:10016000DF93CDB7DEB762E080E00E94D00B00C025
:1001700062E080E00E94E20B0000DF91CF910895E1
:10018000CF93DF931F921F92CDB7DEB789836A8327
:100190008A81882331F0809128028160809328022F
:1001A00005C0809128028E7F8093280280912802CA
:1001B0008D7F8093280280912802682F80E00E9422
:1001C000560B809128028F77809328028091280215
:1001D0008F7B80932802809128028F7D8093280254
:1001E000809128028F7E80932802898188232CF4B5
:1001F000809128028068809328028981882F90E06E
:1002000080749927892B29F080912802806480933B
:1002100028028981882F90E080729927892B29F004
:10022000809128028062809328028981882F90E043
:1002300080719927892B29F0809128028061809311
:10024000280280912802682F80E00E94560B0E94AD
:10025000AF00809128028F77809328028091280236
:100260008F7B80932802809128028F7D80932802C3
:10027000809128028F7E809328028981882F90E0C8
:1002800088709927892B29F08091280280688093B3
:1002900028028981882F90E084709927892B29F082
:1002A000809128028064809328028981882F90E0C1
:1002B00082709927892B29F080912802806280938F
:1002C00028028981882F90E081709927892B29F055
:1002D0008091280280618093280280912802682FF3
:1002E00080E00E94560B0E94AF008091280280613E
:1002F0008093280280912802806280932802809156
:10030000280280648093280280912802806880936C
:10031000280280912802682F80E00E94560B00007E
:100320000F900F90DF91CF910895CF93DF931F929D
:100330001F92CDB7DEB78A838A81882331F08091FE
:10034000280281608093280205C0809128028E7F58
:1003500080932802809128028260809328028091F5
:100360002802682F80E00E94560B62E080E00E9425
:10037000D00B00C064E080E00E942A0B8295807F51
:10038000898362E080E00E94E20B00C062E080E0CE
:100390000E94D00B00C064E080E00E942A0B082E6F
:1003A000000C990B8F709927982F8981892B89834D
:1003B00062E080E00E94E20B89810F900F90DF9154
:1003C000CF9108951F93CF93DF93CDB7DEB780E031
:1003D0000E949501182F812F8823CCF380E090E0B4
:1003E0000E94950080E00E949501DF91CF911F91BE
:1003F00008951F93CF93DF931F92CDB7DEB7898304
:100400008981803410F410E401C010E080E8810F8D
:100410000E94100200000F90DF91CF911F9108956C
:10042000CF93DF931F92CDB7DEB789830E94E2019D
:1004300060E089810E94C00000000F90DF91CF91A1
:100440000895CF93DF931F921F92CDB7DEB78983B4
:100450006A838A81882329F4898180580E94100246
:1004600004C0898180540E94100200000F900F90F8
:10047000DF91CF910895CF93DF93CDB7DEB781E0C1
:100480000E9410020000DF91CF910895CF93DF9377
:100490001F92CDB7DEB789838981882331F080919F
:1004A0002802877F8093280205C0809128028860F7
:1004B0008093280280912802682F80E00E94560BCA
:1004C00000000F90DF91CF910895CF93DF93CDB7C8
:1004D000DEB782E00E9410020000DF91CF91089504
:1004E000CF93DF931F921F92CDB7DEB78A830E940E
:1004F000E20189838A818A3021F489810E94F9018D
:1005000015C08981803129F460E080EC0E94C00030
:1005100007C08981803521F460E080E80E94C00036
:100520000E94E20161E08A810E94C00000000F90F9
:100530000F90DF91CF9108951F93CF93DF931F9278
:100540001F92CDB7DEB79A83898303C0812F0E94A3
:10055000700289819A819C012F5F3F4F3A832983E2
:10056000FC011081112391F700000F900F90DF9193
:10057000CF911F910895CF93DF931F92CDB7DEB730
:1005800089830E94150A1092280280912802682F00
:1005900080E00E94560B80EA9FE00E9495008091C7
:1005A00028028062809328028091280280618093D3
:1005B000280280912802682F80E00E94560B0E943A
:1005C000AF0080EE94E00E9495000E94AF0080E1B1
:1005D00090E00E9495000E94AF0080E190E00E94B0
:1005E0009500809128028F7E8093280280912802B6
:1005F000682F80E00E94560B0E94AF0080E190E0DF
:100600000E94950088E20E94100288E00E94100279
:100610000E943B0286E00E94100289810E94100223
:1006200000000F90DF91CF910895CF93DF93CDB766
:10063000DEB7A9970FB6F894DEBF0FBECDBF0E94FC
:1006400076060E9437070E9463070E9491070E9466
:10065000C6078DE00E94BB020E9465021B828B814F
:100660000E94460260E080E00E94210280E092E069
:100670000E949C0261E080E00E94210284E092E0FE
:100680000E949C0260E088E00E94210288E092E0E3
:100690000E949C0261E088E00E9421028CE092E0CE
:1006A0000E949C0289E091E0FC01808180937B02A2
:1006B00080917B028F3F11F01092550282E290E010
:1006C00020915502FC0120838091510290915202A9
:1006D000A0915302B091540223E333E343E250E488
:1006E000BC01CD010E94FE0CDC01CB018C839D83FB
:1006F000AE83BF838091860290918702A091880289
:10070000B091890223E333E343E250E4BC01CD011D
:100710000E94FE0CDC01CB0188879987AA87BB87E2
:100720008091810290918202A0918302B091840213
:1007300020E030E046E953E4BC01CD010E948D0C7D
:10074000DC01CB0120E030E040EE50E4BC01CD0103
:100750000E94FE0CDC01CB018C879D87AE87BF8792
:100760006C817D818E819F810E94700DDC01CB01A7
:10077000998B888B20E030E048EC52E46C817D81DD
:100780008E819F810E945D0EDC01CB018A8B9B8B49
:10079000AC8BBD8B6A897B898C899D890E94700D89
:1007A000DC01CB019F8B8E8B2889398944E6429FDF
:1007B000C001439F900D1124998F888F2E893F8906
:1007C000888D998DA901481B590BCA019B8F8A8F6F
:1007D00089898F9388898F9380E192E0892F8F9305
:1007E00080E192E08F93CE014C96292F2F938F9327
:1007F0000E94CA0E0F900F900F900F900F900F90C5
:100800008B8D8F938A8D8F9388E192E0892F8F93C0
:1008100088E192E08F93CE018196292F2F938F93B9
:100820000E94CA0E0F900F900F900F900F900F9094
:1008300060E082E00E942102CE014C960E949C0260
:1008400060E084E00E9421028FE192E00E949C021D
:1008500060E085E00E942102CE0181960E949C0208
:1008600060E088E00E942102688579858A859B8501
:100870000E94700DDC01CB01998B888B20E030E069
:1008800048EC52E4688579858A859B850E945D0ED7
:10089000DC01CB018A8B9B8BAC8BBD8B6A897B89FE
:1008A0008C899D890E94700DDC01CB019F8B8E8B02
:1008B0002889398944E6429FC001439F900D112445
:1008C000998F888F2E893F89888D998DF901E81B32
:1008D000F90BCF019B8F8A8F89898F9388898F939A
:1008E00080E192E0892F8F9380E192E08F93CE0197
:1008F0004C96292F2F938F930E94CA0E0F900F9022
:100900000F900F900F900F908B8D8F938A8D8F93F8
:1009100088E192E0892F8F9388E192E08F93CE0156
:100920008196292F2F938F930E94CA0E0F900F90BC
:100930000F900F900F900F9061E082E00E942102D3
:10094000CE014C960E949C0261E084E00E9421024C
:100950008FE192E00E949C0261E085E00E9421020A
:10096000CE0181960E949C0261E088E00E942102F3
:100970008091760290917702A0917802B0917902ED
:10098000BC01CD010E94700DDC01CB01998B888BDD
:100990008091760290917702A0917802B0917902CD
:1009A00020E030E048EC52E4BC01CD010E945D0E35
:1009B000DC01CB018A8B9B8BAC8BBD8B6A897B89DD
:1009C0008C899D890E94700DDC01CB019F8B8E8BE1
:1009D0002889398944E6429FC001439F900D112424
:1009E000998F888F2E893F89888D998DA901481B01
:1009F000590BCA019B8F8A8F89898F9388898F931E
:100A000080E192E0892F8F9380E192E08F93CE0175
:100A10004C96292F2F938F930E94CA0E0F900F9000
:100A20000F900F900F900F908B8D8F938A8D8F93D7
:100A300088E192E0892F8F9388E192E08F93CE0135
:100A40008196292F2F938F930E94CA0E0F900F909B
:100A50000F900F900F900F9060E08AE00E942102AB
:100A6000CE014C960E949C0260E08CE00E94210224
:100A70008FE192E00E949C0260E08DE00E942102E2
:100A8000CE0181960E949C0260E08FE00E942102CC
:100A90006C857D858E859F850E94770DDC01CB015D
:100AA0009A83898389819A818436910520F083E62F
:100AB00090E09A8389838A818F9389818F9381E2E1
:100AC00092E0892F8F9381E292E08F93CE018696F8
:100AD000292F2F938F930E94CA0E0F900F900F9083
:100AE0000F900F900F9061E08AE00E942102CE01EA
:100AF00086960E949C02D6CDCF92DF92EF92FF9213
:100B00000F931F93CF93DF93CDB7DEB766970FB6E2
:100B1000F894DEBF0FBECDBF9E878D874F87588B61
:100B2000698B7A8B0B8B1C8B2D8B3E8B8D859E85D9
:100B3000FC0184899589A689B7892F8538894989D7
:100B40005A89BC01CD010E945D0EDC01CB01898375
:100B50009A83AB83BC838D859E85FC0184819581BE
:100B6000A681B7812F85388949895A89BC01CD0171
:100B70000E948D0CDC01CB012D853E85F90184831B
:100B80009583A683B7838D859E85FC01848195819D
:100B9000A681B7812D853E85F90120853185428565
:100BA0005385BC01CD010E94580E18167CF48D852A
:100BB0009E85FC0180859185A285B3852D853E8526
:100BC000F90184839583A683B78322C08D859E8592
:100BD000FC0184819581A681B7812D853E85F9012F
:100BE0002485358546855785BC01CD010E94F90CC9
:100BF000882374F48D859E85FC0184859585A68562
:100C0000B7852D853E85F90184839583A683B783B7
:100C10008D859E85FC0180899189A289B3892D8566
:100C20003E85F9012481358146815781BC01CD0182
:100C30000E945D0EDC01CB018D839E83AF83B8875C
:100C40008D859E85FC01C08CD18CE28CF38C8D85CA
:100C50009E85FC0180819181A281B3819C01AD01BF
:100C60006B897C898D899E890E948C0CDC01CB016B
:100C70009C01AD01C701B6010E945D0EDC01CB01F4
:100C800089879A87AB87BC872D853E858B899C8910
:100C9000AD89BE89F90180839183A283B3832D81BD
:100CA0003E814F81588569817A818B819C810E9428
:100CB0008D0CDC01CB0129853A854B855C85BC0117
:100CC000CD010E948C0CDC01CB01BC01CD016696EC
:100CD0000FB6F894DEBF0FBECDBFDF91CF911F914D
:100CE0000F91FF90EF90DF90CF900895CF93DF9317
:100CF000CDB7DEB78AE091E0FC0110828BE091E095
:100D00002FEFFC0120838DE290E028E0FC0120839E
:100D10008EE290E0FC01108281E290E02FEFFC0176
:100D2000208382E290E0FC01108284E290E0FC01EA
:100D3000108285E290E02FEFFC01208380E090E0BC
:100D4000A8E4B2E48093760290937702A0937802AD
:100D5000B093790280E090E0A0E2B1E48093860253
:100D600090938702A0938802B093890280E090E07C
:100D7000A0E2B1E48093510290935202A0935302F7
:100D8000B093540280E090E0A0E8BFE3809341027A
:100D900090934202A0934302B093440280E090E01B
:100DA000A0E8BFE38093450290934602A0934702D8
:100DB000B093480280E090E0A0E2B1E48093490261
:100DC00090934A02A0934B02B0934C0280E090E0D3
:100DD000A8ECB2E48093390290933A02A0933B02CC
:100DE000B0933C0210923D0210923E0210923F02DC
:100DF0001092400280E090E0A0E8BFE3809366029A
:100E000090936702A0936802B093690280E090E03B
:100E1000A0E8BFE380936A0290936B02A0936C02F8
:100E2000B0936D0280E090E0A0E2B1E480936E02A6
:100E300090936F02A0937002B093710280E090E0F3
:100E4000A8ECB2E480935E0290935F02A0936002EC
:100E5000B0936102109262021092630210926402D7
:100E60001092650278940000DF91CF910895CF939E
:100E7000DF93CDB7DEB780E890E0FC01108281E817
:100E800090E02DE0FC01208382E890E0FC011082DC
:100E900089E890E023E0FC01208388E890E020EDE1
:100EA000FC01208385E890E0FC01108284E890E05A
:100EB000FC0110828FE690E022E0FC01208300001C
:100EC000DF91CF910895CF93DF93CDB7DEB78CE755
:100ED00090E022E6FC0120838AE790E02DEAFC0105
:100EE00020838BE790E02BE730E0F9012081207F21
:100EF000FC0120838EE790E02CE0FC0120838DE74D
:100F000090E02FEFFC0120838AE790E02AE730E0B1
:100F1000F90120812064FC0120830000DF91CF9142
:100F20000895CF93DF93CDB7DEB780E990E022E854
:100F3000FC01208381E990E029E1FC01208382E922
:100F400090E0FC01108286E990E028EA31E6FC019D
:100F50003183208385E990E0FC01108284E990E0F0
:100F6000FC01108288E990E026ED36E0FC01318337
:100F7000208381E790E0FC01108288E390E02FE27B
:100F8000FC0120830000DF91CF910895CF93DF9380
:100F9000CDB7DEB788E690E021E0FC0120838BE34B
:100FA00090E021E0FC0120838BE690E020ECFC0146
:100FB00020830000DF91CF9108951F920F9200903F
:100FC0005F000F92112400905B000F922F933F93CC
:100FD0004F935F936F937F938F939F93AF93BF9341
:100FE000EF93FF93CF93DF931F921F92CDB7DEB79E
:100FF0008CE790E0FC018081898389E790E0FC0127
:1010000080818A8389818F71898389818230C9F443
:101010008A81882F90E0A0E0B0E0BC01CD010E9461
:10102000A60DDC01CB018093510290935202A09354
:101030005302B09354028CE790E023E6FC01208336
:1010400018C08A81882F90E0A0E0B0E0BC01CD01FB
:101050000E94A60DDC01CB0180938602909387024B
:10106000A0938802B09389028CE790E022E6FC010D
:10107000208300000F900F90DF91CF91FF91EF91AF
:10108000BF91AF919F918F917F916F915F914F91A0
:101090003F912F910F9000925B000F9000925F00A4
:1010A0000F901F9018951F920F9200905F000F9263
:1010B000112400905B000F920F931F932F933F9387
:1010C0004F935F936F937F938F939F93AF93BF9350
:1010D000EF93FF93CF93DF931F921F92CDB7DEB7AD
:1010E0008091510290915202A0915302B09154020A
:1010F00020917602309177024091780250917902E6
:10110000BC01CD010E948C0CDC01CB0180937C02E0
:1011100090937D02A0937E02B0937F0220915102B2
:1011200030915202409153025091540280917C02BE
:1011300090917D02A0917E02B0917F0289019A0177
:10114000AC01BD0186E592E00E947C05DC01CB018B
:1011500080934D0290934E02A0934F02B0935002A1
:101160008091860290918702A0918802B0918902B5
:1011700020914D0230914E0240914F025091500209
:10118000BC01CD010E948C0CDC01CB01809372026A
:1011900090937302A0937402B0937502209186021B
:1011A00030918702409188025091890280917202A9
:1011B00090917302A0917402B091750289019A0115
:1011C000AC01BD0181E392E00E947C05DC01CB0112
:1011D0008093810290938202A0938302B093840251
:1011E0008091810290918202A0918302B091840249
:1011F00020E030E04AEF54E4BC01CD010E948D0CA8
:10120000DC01CB01BC01CD010E94770DDC01CB01DB
:101210009A83898389819A81853C994028F084EC5E
:1012200099E09A83898309C089819A818C3D954090
:1012300020F48CED95E09A83898388E990E02981F8
:101240003A81FC013183208300000F900F90DF91E1
:10125000CF91FF91EF91BF91AF919F918F917F912E
:101260006F915F914F913F912F911F910F910F902F
:1012700000925B000F9000925F000F901F901895F6
:101280001F920F9200905F000F92112400905B005C
:101290000F922F933F934F935F936F937F938F930F
:1012A0009F93AF93BF93EF93FF93CF93DF93CDB70C
:1012B000DEB72E97DEBFCDBF83E290E0FC018081D8
:1012C0008F3729F48091550280688093550283E21C
:1012D00090E0FC0180818F3B29F48091550280646D
:1012E0008093550283E290E0FC0180818F3339F4D2
:1012F000109255028091550280628093550280E0E1
:1013000090E0A8ECB2E489839A83AB83BC8320E0AD
:1013100030E04AE753E469817A818B819C810E94A5
:101320005D0EDC01CB018D839E83AF83B88720E007
:1013300030E040E85FE36D817E818F8198850E9477
:10134000F90C88232CF481E090E09A8789873FC0CC
:1013500020E03FEF4FE757E46D817E818F819885D4
:101360000E94580E18164CF520E030E040E251E49F
:1013700069817A818B819C810E945D0EDC01CB01A9
:10138000BC01CD010E94770DDC01CB019A878987D2
:101390000FC089E190E09C878B878B859C850197A6
:1013A000F1F79C878B8789859A8501979A8789872A
:1013B00089859A85892B69F714C06D817E818F811B
:1013C00098850E94770DDC01CB019A8789878985F2
:1013D0009A859E878D878D859E850197F1F79E87DB
:1013E0008D8782E290E020915502FC01208300006D
:1013F0002E960FB6F894DEBF0FBECDBFDF91CF9112
:10140000FF91EF91BF91AF919F918F917F916F91DC
:101410005F914F913F912F910F9000925B000F9041
:1014200000925F000F901F901895CF93DF93CDB778
:10143000DEB7A1970FB6F894DEBF0FBECDBF0E94F6
:10144000F40B80E090E0A0E2B1E48A839B83AC835C
:10145000BD832BEA3AEA4AEA5EE36A817B818C81AA
:101460009D810E945D0EDC01CB018E839F83A88746
:10147000B98720E030E040E85EE36A817B818C81BF
:101480009D810E945D0EDC01CB018A879B87AC8722
:10149000BD8720E030E040E85FE36E817F81888592
:1014A00099850E94F90C88231CF481E08E87B2C0D4
:1014B00020E03FEF4FE757E46A857B858C859D856B
:1014C0000E94580E18160CF07BC020E030E04AE76E
:1014D00054E46A817B818C819D810E94FE0CDC0139
:1014E000CB018F87988BA98BBA8B20E030E04AE73D
:1014F00053E46F85788989899A890E945D0EDC01A1
:10150000CB018B8B9C8BAD8BBE8B20E030E040E819
:101510005FE36B897C898D899E890E94F90C882301
:101520002CF481E090E0988F8F8B3FC020E03FEF5C
:101530004FE757E46B897C898D899E890E94580EFC
:1015400018164CF520E030E040E251E46F857889D0
:1015500089899A890E945D0EDC01CB01BC01CD0115
:101560000E94770DDC01CB01988F8F8B0FC089E132
:1015700090E09A8F898F898D9A8D0197F1F79A8FD4
:10158000898F8F89988D0197988F8F8B8F89988DF0
:10159000892B69F73FC06B897C898D899E890E9460
:1015A000770DDC01CB01988F8F8B8F89988D9C8F65
:1015B0008B8F8B8D9C8D0197F1F79C8F8B8F2AC021
:1015C00020E030E04FE753E46E817F818885998584
:1015D0000E94580E1816ACF46A857B858C859D8513
:1015E0000E94770DDC01CB019E8F8D8F8D8D9E8D9E
:1015F00098A38F8F8F8D98A10197F1F798A38F8F64
:101600000FC06E817F81888599850E94770DDC01EE
:10161000CB018E878E8589A389A18A95F1F789A34D
:10162000198219820AC08981882F90E0875D9D4FB9
:10163000FC01108289818F5F89838981883098F3CA
:101640000000A1960FB6F894DEBF0FBECDBFDF91AC
:10165000CF910895CF93DF9300D0CDB7DEB78A83C3
:101660006B838FEF89838A818830C8F48B818830BF
:10167000B0F48A81882F90E0875D9D4FFC018081C6
:1016800089838981082E000C990B2B81222F30E051
:1016900002C0959587952A95E2F7817089838981A3
:1016A0000F900F900F90DF91CF910895CF93DF931C
:1016B0001F921F92CDB7DEB789836A8389818830F4
:1016C000A0F48981882F90E0875D9D4F2A81FC01DD
:1016D00020838981895D880F0E94050C8A810E9480
:1016E000630C0E944B0C80E001C08FEF0F900F90B5
:1016F000DF91CF910895CF93DF9300D01F92CDB7A4
:10170000DEB78A836B834C838A81883008F040C0BF
:101710008B818830E8F519828A81882F90E0875D77
:101720009D4FFC01808189838C81882371F08B819E
:10173000282F30E081E090E002C0880F991F2A95A1
:10174000E2F7982F8981892B0EC08B81282F30E0FA
:1017500081E090E002C0880F991F2A95E2F7982F48
:1017600090958981892389838A81882F90E0875D7C
:101770009D4F2981FC0120838A81895D880F0E9409
:10178000050C89810E94630C0E944B0C80E001C013
:101790008FEF0F900F900F900F90DF91CF910895E2
:1017A000CF93DF931F921F92CDB7DEB789836A83F1
:1017B00041E06A8189810E947B0B0F900F90DF913D
:1017C000CF910895CF93DF931F921F92CDB7DEB7CD
:1017D00089836A8340E06A8189810E947B0B0F9034
:1017E0000F90DF91CF910895CF93DF93CDB7DEB700
:1017F00089EB90E0FC01108288EB90E020ECFC018A
:1018000020830000DF91CF910895CF93DF931F9243
:101810001F92CDB7DEB78A838CEB90E024EAFC01FF
:10182000208300008CEB90E0FC0180818823D4F7BA
:1018300089EB90E0FC018081887F898389818830F1
:1018400029F08981803111F081E020C08BEB90E09C
:101850002A81FC0120838CEB90E024E8FC012083AA
:1018600000008CEB90E0FC0180818823D4F789EBA9
:1018700090E0FC018081887F89838981883129F00B
:101880008981803411F081E001C080E00F900F90D9
:10189000DF91CF910895CF93DF93CDB7DEB78CEB77
:1018A00090E024E9FC01208300008CEB90E0FC0137
:1018B0008081882F90E080719927892BB1F70000F3
:1018C000DF91CF910895CF93DF931F921F92CDB7F1
:1018D000DEB78A838BEB90E02A81FC0120838CEBBE
:1018E00090E024E8FC01208300008CEB90E0FC01F8
:1018F00080818823D4F789EB90E0FC018081887F88
:1019000089838981883211F081E001C080E00F90E5
:101910000F90DF91CF9108955058BB27AA270E94BE
:10192000A40C0C941E0E0E94100E38F00E94170E8C
:1019300020F039F49F3F19F426F40C940D0E0EF4A8
:10194000E095E7FB0C94070EE92F0E942F0E58F349
:10195000BA17620773078407950720F079F4A6F594
:101960000C94510E0EF4E0950B2EBA2FA02D0B0106
:10197000B90190010C01CA01A0011124FF27591BD4
:1019800099F0593F50F4503E68F11A16F040A22FDA
:10199000232F342F4427585FF3CF4695379527954B
:1019A000A795F0405395C9F77EF41F16BA0B620B4A
:1019B000730B840BBAF09150A1F0FF0FBB1F661F91
:1019C000771F881FC2F70EC0BA0F621F731F841FD4
:1019D00048F4879577956795B795F7959E3F08F0FA
:1019E000B0CF9395880F08F09927EE0F97958795BC
:1019F00008950E94E30D08F481E008950E94120DFD
:101A00000C941E0E0E94170E58F00E94100E40F00B
:101A100029F45F3F29F00C94070E51110C94520EDB
:101A20000C940D0E0E942F0E68F39923B1F35523E9
:101A300091F3951B550BBB27AA27621773078407E1
:101A400038F09F5F5F4F220F331F441FAA1FA9F377
:101A500035D00E2E3AF0E0E832D091505040E69565
:101A6000001CCAF72BD0FE2F29D0660F771F881FC6
:101A7000BB1F261737074807AB07B0E809F0BB0BB9
:101A8000802DBF01FF2793585F4F3AF09E3F5105CD
:101A900078F00C94070E0C94520E5F3FE4F3983EDE
:101AA000D4F3869577956795B795F7959F5FC9F7B6
:101AB000880F911D9695879597F90895E1E0660F37
:101AC000771F881FBB1F621773078407BA0720F0B0
:101AD000621B730B840BBA0BEE1F88F7E095089519
:101AE0000E94770D6894B1110C94520E08950E94D3
:101AF000370E88F09F5798F0B92F9927B751B0F05B
:101B0000E1F0660F771F881F991F1AF0BA95C9F781
:101B100014C0B13091F00E94510EB1E008950C94C0
:101B2000510E672F782F8827B85F39F0B93FCCF373
:101B3000869577956795B395D9F73EF490958095FE
:101B4000709561957F4F8F4F9F4F0895E89409C01E
:101B500097FB3EF490958095709561957F4F8F4FE0
:101B60009F4F9923A9F0F92F96E9BB279395F695F6
:101B7000879577956795B795F111F8CFFAF4BB0F74
:101B800011F460FF1BC06F5F7F4F8F4F9F4F16C0D8
:101B9000882311F096E911C0772321F09EE8872F62
:101BA000762F05C0662371F096E8862F70E060E01E
:101BB0002AF09A95660F771F881FDAF7880F969597
:101BC000879597F90895990F0008550FAA0BE0E83B
:101BD000FEEF16161706E807F907C0F012161306EF
:101BE000E407F50798F0621B730B840B950B39F42F
:101BF0000A2661F0232B242B252B21F408950A2695
:101C000009F4A140A6958FEF811D811D089597F9D4
:101C10009F6780E870E060E008959FEF80EC089592
:101C200000240A94161617061806090608950024BB
:101C30000A9412161306140605060895092E039435
:101C4000000C11F4882352F0BB0F40F4BF2B11F4A9
:101C500060FF04C06F5F7F4F8F4F9F4F089557FD08
:101C60009058440F551F59F05F3F71F04795880F0A
:101C700097FB991F61F09F3F79F0879508951216A1
:101C800013061406551FF2CF4695F1DF08C016164D
:101C900017061806991FF1CF8695710561050894FE
:101CA0000895E894BB2766277727CB0197F9089515
:101CB0000E94E30D08F48FEF08950E94700E0C94BB
:101CC0001E0E0E94100E38F00E94170E20F0952371
:101CD00011F00C94070E0C940D0E11240C94520E5E
:101CE0000E942F0E70F3959FC1F3950F50E0551F82
:101CF000629FF001729FBB27F00DB11D639FAA2761
:101D0000F00DB11DAA1F649F6627B00DA11D661FAF
:101D1000829F2227B00DA11D621F739FB00DA11DD0
:101D2000621F839FA00D611D221F749F3327A00D8A
:101D3000611D231F849F600D211D822F762F6A2F26
:101D400011249F5750409AF0F1F088234AF0EE0F8B
:101D5000FF1FBB1F661F771F881F91505040A9F7B8
:101D60009E3F510580F00C94070E0C94520E5F3F7D
:101D7000E4F3983ED4F3869577956795B795F795F4
:101D8000E7959F5FC1F7FE2B880F911D969587956C
:101D900097F908950F931F93CF93DF93CDB7DEB7D5
:101DA0002E970FB6F894DEBF0FBECDBF0E891F89E8
:101DB00086E08C831A8309838FEF9FE79E838D8350
:101DC000AE01465E5F4F688D798DCE0101960E940F
:101DD000F90EEF81F885E00FF11F10822E960FB6F5
:101DE000F894DEBF0FBECDBFDF91CF911F910F9151
:101DF00008952F923F924F925F926F927F928F92AF
:101E00009F92AF92BF92CF92DF92EF92FF920F9389
:101E10001F93CF93DF93CDB7DEB72B970FB6F89410
:101E2000DEBF0FBECDBF6C017B018A01FC011782B2
:101E30001682838181FFCCC1CE0101963C01F6015F
:101E40009381F70193FD859193FF81917F01882311
:101E500009F4BAC1853239F493FD859193FF8191DC
:101E60007F01853229F4B60190E00E941911E7CF75
:101E7000912C212C312CFFE1F315D8F08B3279F025
:101E800038F4803279F08332A1F4232D20611DC013
:101E90008D3261F0803369F4232D216016C0832DCB
:101EA0008260382EE32DE4603E2E2AC0F32DF860C8
:101EB0001DC037FC2DC020ED280F2A3040F08E3297
:101EC000B9F436FC81C1232D2064322E19C036FEB0
:101ED00006C08AE0989E200D1124922E11C0EAE0DF
:101EE0002E9E200D1124222EF32DF0623F2E08C0CD
:101EF0008C3621F4832D8068382E02C0883641F458
:101F0000F70193FD859193FF81917F018111B3CFFB
:101F1000982F9F7D9554933028F40C5F1F4F9FE3BB
:101F200099830DC0833631F0833771F0833509F022
:101F300059C021C0F801808189830E5F1F4F88241A
:101F40008394912C530113C02801F2E04F0E511CD1
:101F5000F801A080B18036FE03C0692D70E002C098
:101F60006FEF7FEFC5010E940E114C018201F32D2E
:101F7000FF773F2E16C0280122E0420E511CF801C7
:101F8000A080B18036FE03C0692D70E002C06FEF03
:101F90007FEFC5010E9403114C01F32DF0683F2E25
:101FA000820133FC1BC0822D90E088169906B0F4A4
:101FB000B60180E290E00E9419112A94F4CFF50155
:101FC00037FC859137FE81915F01B60190E00E9458
:101FD000191121102A9421E0821A91088114910488
:101FE00071F7E8C0843611F0893641F5F80137FE03
:101FF00007C060817181828193810C5F1F4F08C08F
:1020000060817181072E000C880B990B0E5F1F4FAA
:10201000F32DFF763F2E97FF09C090958095709520
:1020200061957F4F8F4F9F4FF0683F2E2AE030E041
:10203000A3010E945511882E861845C0853731F4BA
:10204000232D2F7EB22E2AE030E025C0932D997FDC
:10205000B92E8F36C1F018F4883579F0B5C08037C5
:1020600019F0883721F0B0C0E92FE061BE2EB4FE30
:102070000DC0FB2DF460BF2E09C034FE0AC0292F0D
:102080002660B22E06C028E030E005C020E130E036
:1020900002C020E132E0F801B7FE07C06081718123
:1020A000828193810C5F1F4F06C06081718180E047
:1020B00090E00E5F1F4FA3010E945511882E8618D5
:1020C000FB2DFF773F2E36FE0DC0232D2E7FA22E37
:1020D000891458F434FE0BC032FC09C0832D8E7E67
:1020E000A82E05C0B82CA32C03C0B82C01C0B92C55
:1020F000A4FE0FC0FE01E80DF11D8081803321F4A4
:102100009A2D997EA92E09C0A2FE06C0B394B3945D
:1021100004C08A2D867809F0B394A3FC11C0A0FEF8
:1021200006C0B21488F4280C922C9B180EC0B2146E
:1021300060F4B60180E290E00E941911B394F7CFE9
:10214000B21418F42B1802C0982C212CA4FE10C035
:10215000B60180E390E00E941911A2FE17C0A1FC15
:1021600003C088E790E002C088E590E0B6010CC0AB
:102170008A2D867859F0A1FE02C08BE201C080E270
:10218000A7FC8DE2B60190E00E941911891438F481
:10219000B60180E390E00E9419119A94F7CF8A94D7
:1021A000F301E80DF11D8081B60190E00E94191144
:1021B0008110F5CF222009F442CEB60180E290E0F2
:1021C0000E9419112A94F6CFF6018681978102C0E8
:1021D0008FEF9FEF2B960FB6F894DEBF0FBECDBFEB
:1021E000DF91CF911F910F91FF90EF90DF90CF90F3
:1021F000BF90AF909F908F907F906F905F904F9027
:102200003F902F900895FC0105906150704001109F
:10221000D8F7809590958E0F9F1F0895FC0161500F
:10222000704001900110D8F7809590958E0F9F1FF8
:1022300008950F931F93CF93DF93FB01238121FD1B
:1022400003C08FEF9FEF2CC022FF16C0468157813D
:10225000248135814217530744F4A081B1819D0147
:102260002F5F3F4F318320838C93268137812F5FEF
:102270003F4F3783268314C08B01EC01FB010084A0
:10228000F185E02D1995892BE1F6D80116968D91EF
:102290009C911797019617969C938E931697CE0153
:1022A000DF91CF911F910F910895FA01AA2728304D
:1022B00051F1203181F1E8946F936E7F6E5F7F4F13
:1022C0008F4F9F4FAF4FB1E03ED0B4E03CD0670F8F
:1022D000781F891F9A1FA11D680F791F8A1F911DE2
:1022E000A11D6A0F711D811D911DA11D20D009F432
:1022F00068943F912AE0269F11243019305D319374
:10230000DEF6CF010895462F4770405D4193B3E05C
:102310000FD0C9F7F6CF462F4F70405D4A3318F003
:10232000495D31FD4052419302D0A9F7EACFB4E0B4
:10233000A6959795879577956795BA95C9F700976C
:102340006105710508959B01AC010A2E069457950D
:10235000479537952795BA95C9F7620F731F841F64
:0A236000951FA01D0895F894FFCF0B
:10236A004C3D2000463D2000533D20004F3D2000BB
:10237A0025322E3168686900252E31686869002C7B
:08238A0000252E3168690000F6
:00000001FF
